:100000000C9434030C9446030C9446030C9446035E
:100010000C9446030C9446030C9446030C9446033C
:100020000C9446030C9446030C9446030C945E0314
:100030000C9446030C9446030C9446030C9446031C
:100040000C9446030C9446030C9446030C9446030C
:100050000C9446030C9446030C9446030C944603FC
:100060000C9446030C944603380038003800000016
:100070001101110111010000920092009200000094
:1000800054005400540000003800380038000000CC
:100090001101110111010000920092009200000074
:1000A00054005400540000003800380038000000AC
:1000B0001101110111010000920092009200000054
:1000C000540054005400000038003800380000008C
:1000D0001101110111010000920092009200000034
:1000E00054005400540000000000000038000000DC
:1000F0000000000011010000000038009200000024
:1001000000001101540000000000920038000000BF
:100110003800540011010000110138009200000065
:1001200092001101540000005400920038000000B9
:100130003800540011010000110138009200000045
:100140009200110154000000540092003800000099
:1001500038005400000000001101380000000000C9
:1001600092000000000000000000FF0100000000FD
:1001700007003800C00100003800380038000000D7
:10018000C0013800070000000000FF01000000006F
:1001900007003800C00100003800380038000000B7
:1001A000C0013800070000000000FF01000000004F
:1001B00007003800C0010000380038003800000097
:1001C000C0013800070000000000FF01000000002F
:1001D00007003800C0010000380038003800000077
:1001E000C001380007000000920092009200000059
:1001F00024019200490000000000FF0100000000FF
:100200004900920024010000920092009200000038
:1002100024019200490000000000FF0100000000DE
:100220004900920024010000920092009200000018
:1002300024019200490000000000FF0100000000BE
:1002400049009200240100009200920092000000F8
:1002500024019200490000000000FF01000000009E
:100260004900920024010000FF010000000000008E
:100270000000FF010000000000000000FF0100007E
:100280000000FF0100000000FF010000000000006E
:100290000000FF010000000000000000FF0100005E
:1002A0000000FF0100000000FF010000000000004E
:1002B0000000FF010000000000000000FF0100003E
:1002C0000000FF0100000000FF010000000000002E
:1002D0000000FF010000000000000000FF0100001E
:1002E0000000FF01000000000700070007000000F9
:1002F00011011101110100004900490049000000ED
:100300005400540054000000C001C001C0010000AE
:100310001101110111010000240124012401000038
:1003200054005400540000000700070007000000BC
:1003300011011101110100004900490049000000AC
:100340005400540054000000C001C001C00100006E
:1003500011011101110100002401240124010000F8
:10036000540054005400000007000700070000007C
:100370003800380038000000C001C001C001000092
:1003800011011101110100002401240124010000C8
:1003900092009200920000004900490049000000CC
:1003A0001101110111010000070007000700000002
:1003B0003800380038000000C001C001C001000052
:1003C0001101110111010000240124012401000088
:1003D000920092009200000049004900490000008C
:1003E00011011101110100000001000000000000D6
:1003F000000080000000000000000000400000003D
:1004000020000000000000000000100000000000BC
:1004100000000000080000000400000000000000D0
:1004200000000200000000000000000001000000C9
:1004300000000200000000000400000000000000B6
:100440000000000008000000000010000000000094
:10045000200000000000000000000000400000003C
:10046000000080000000000000000000010000000B
:100470000000010010000000010010000001000059
:10048000100000011000000000011000200000001A
:1004900010002000010000002000010010000000FA
:1004A0000100100004000000100004000100000022
:1004B0000400010010000000010010000000000016
:1004C00010000000000100000000000150000000CA
:1004D0000001500001000000500001000000000079
:1004E00001000000000000000000100000000000FB
:1004F00000000000000000000000100000000000EC
:1005000000000000000000000000100000000000DB
:1005100000000000000000000000100000000000CB
:1005200000000000000000000000100000000000BB
:1005300000000000000000000000100000000000AB
:10054000000000000000000000001000000000009B
:10055000000000000000000000001000000000008B
:100560000000000000000000FF01FF01FF0100008B
:100570000000000000000000FF01FF01FF0100007B
:100580000000000000000000FF01FF01FF0100006B
:100590000000000000000000FF01FF01FF0100005B
:1005A0000000000000000000FF01FF01FF0100004B
:1005B0000000000000000000FF01FF01FF0100003B
:1005C0000000000000000000FF01FF01FF0100002B
:1005D0000000000000000000FF01FF01FF0100001B
:1005E000000000000000000000000000000100000A
:1005F000000000008000000000000000400000003B
:1006000000000000080000000000000001000000E1
:1006100000000000020000000000000004000000D4
:1006200000000000200000000000000000010000A9
:1006300000000000800000000000000040000000FA
:1006400000000000080000000000000001000000A1
:100650000000000002000000000000000400000094
:10066000000000002000000011241FBECFEFD8E0E2
:10067000DEBFCDBF21E0A0E0B1E001C01D92A130FE
:10068000B207E1F70E9499030C94D0030C94000088
:10069000E1E8F0E080818D60808310928500109207
:1006A00084008CED95E09093890080938800EFE6BC
:1006B000F0E0808182608083789408951F921FB655
:1006C0001F9211248F93809100018F5F813C38F439
:1006D000809300018F911F901FBE1F90189510925C
:1006E0000001F8CF1092C50080E18093C400E0ECD7
:1006F000F0E080818260808386E08093C20088E1A0
:100700008093C1000895CF93C82F8A3019F48DE0EB
:100710000E9483038091C00085FFFCCFC093C60078
:10072000CF9108958091C00087FFFCCF8091C600D3
:1007300008958FEF84B98FE387B915B818B80E9470
:10074000480380E041E050E095B19A01082E02C0D4
:10075000220F331F0A94E2F7220F331F922B95B911
:10076000E091000194E0E99FF0011124E80FF11DF0
:10077000EE0FFF1FE859FF4F65917491962F9F73FD
:1007800098B99B0136952795369527952073972F15
:100790009170292B25B98F5F8430B0F280E0D4CFDF
:0407A000F894FFCFFB
:00000001FF
